:020000040800F2
:1000000000110020F11000089D290008C51000080B
:10001000C5100008C5100008C51000080000000049
:10002000000000000000000000000000D90D0008E2
:10003000C510000800000000850D00089D1A00088A
:10004000890E0008890E0008890E0008890E000834
:10005000890E0008890E0008890E0008890E000824
:10006000890E0008890E0008890E0008890E000814
:10007000890E0008890E0008890E0008890E000804
:10008000890E0008890E0008890E0008890E0008F4
:10009000890E0008890E0008890E0008890E0008E4
:1000A000890E0008890E0008890E0008890E0008D4
:1000B000890E0008890E0008890E0008890E0008C4
:1000C000890E0008890E0008890E0008890E0008B4
:1000D000890E0008890E0008890E0008890E0008A4
:1000E000890E0008890E0008890E0008890E000894
:1000F000890E0008890E0008890E0008890E000884
:10010000890E0008890E0008890E0008890E000873
:10011000890E0008890E0008890E0008890E000863
:10012000890E0008890E0008890E0008890E000853
:10013000890E0008890E0008890E0008890E000843
:10014000890E0008890E0008890E0008890E000833
:10015000890E0008890E0008890E0008890E000823
:10016000890E0008890E0008890E0008890E000813
:10017000890E0008890E0008890E0008890E000803
:10018000890E0008890E0008890E0008890E0008F3
:04019000890E0008CC
:1001940053B94AB9002908BF00281CBF4FF0FF31EA
:1001A4004FF0FF3000F00CB8ADF1080C6DE904CE4F
:1001B40000F008F8DDF804E0DDE9022304B070473C
:1001C400704700BF2DE9F04786468C460846089ED6
:1001D400154674461946002B40F0C2808542B2FA97
:1001E40082F245D94AB1C2F1200300FA02FC2EFA88
:1001F40003F3954043EA0C0C94404FEA154EA8B221
:10020400BCFBFEF8230C0EFB18CC08FB00F943EAF8
:100214000C43994528D9EB1808F1FF3704D29945C6
:1002240002D9A8F102072B44A3EB0903A4B2B3FB40
:10023400FEFC0EFB1C330CFB00F044EA0344A0421A
:1002440014D92C190CF1FF3304D2A04202D9ACF119
:1002540002032C44241A43EA07401EB1D44000236D
:1002640034607360BDE8F0874746DDE76346F1E735
:1002740092BB431B01214FEA154EAFB2B3FBFEFC08
:10028400200C0EFB1C330CFB07F840EA0343984593
:1002940062D9EB180CF1FF3004D2984502D9ACF1C5
:1002A40002002B44A3EB0803A4B2B3FBFEFC0EFB39
:1002B4001C330CFB07F744EA0344A7424ED92C191C
:1002C4000CF1FF3304D2A74202D9ACF102032C444F
:1002D400E41B43EA0040C0E7C2F1200320FA03F123
:1002E400954090402EFA03F303434FEA154EAFB204
:1002F400B1FBFEFC0EFB1C10190C0CFB07F841EAC9
:100304000041884504FA02F422D969180CF1FF303F
:1003140004D2884502D9ACF102002944A1EB0801BA
:100324009BB2B1FBFEFC0EFB1C110CFB07F743EA6E
:1003340001439F420ED9EB180CF1FF3104D29F42C6
:1003440002D9ACF102012B44DB1B41EA004192E7E4
:100354006046E3E76146F7E76046A3E76346B7E72D
:10036400834206D916B9002108467BE7C6E900E0B6
:10037400F9E7B3FA83F78FB9834201D3724508D8FA
:10038400BEEB020460EB030301209C461EB900216E
:1003940068E73846FAE7C6E9004CF8E7C7F1200CED
:1003A400BB4022FA0CF41C432EFA0CF120FA0CF395
:1003B400B84001434FEA14490EFA07F5B3FBF9F8C4
:1003C4001FFA84FE09FB18300B0C08FB0EFA43EAF3
:1003D40000439A4502FA07F240D9E31808F1FF30C6
:1003E40004D29A4502D9A8F102002344A3EB0A03DC
:1003F40089B2B3FBF9F809FB183308FB0EFE41EA96
:1004040003418E452CD9611808F1FF3304D28E457F
:1004140002D9A8F10203214443EA0040A0FB029858
:10042400A1EB0E014145CE46434602D306D14D45CC
:1004340004D2B9EB020E68EB04030138002EA6D0F7
:10044400B5EB0E0261EB030101FA0CFC22FA07F38F
:100454004CEA0303F940C6E9003198E74046C5E792
:100464004346D9E738B5104C204602F02FFEC8B1F8
:100474002269A568136843F4005313602B680B4A80
:100484000D212046984700280CDB4FF400516B697E
:1004940020469847002805DB002142F2107002F044
:1004A40013F8F2E738BD00BF9C33000801000600D2
:1004B400014B1B68184700BF00000020014B186067
:1004C400704700BF0000002007B50B46002102461C
:1004D4000091034800F006F803B05DF804FB00BF88
:1004E400B50400082DE9F04F814695B08B461746B8
:1004F4001C460025387808B9284658E37B1C252873
:10050400039306D05946C8470028C0F250830135EA
:10051400FBE1182200210EA802F060FA7B78252B5B
:100524007DD00023781C98469E469C461E46014674
:1005340010F8012B2B2A00F0A18000F29880202AC9
:1005440000F09F80232A00F09F802BB19DF840305B
:1005540043F040038DF84030B8F1000F05D09DF80A
:10056400403043F020038DF84030BEF1000F05D039
:100574009DF8403043F010038DF84030BCF1000F7B
:1005840005D09DF8403043F008038DF840302EB17B
:100594009DF8403043F004038DF840309DF840301E
:1005A40003F04400442803D16FF386138DF84030E0
:1005B4009DF840302A2A43F080038DF840307FD1E3
:1005C4009DF8412042F001024B1C8DF841201A781D
:1005D4002E2A9DF841200CBF0121002161F3410224
:1005E4008DF8412078D15A782A2A6ED0013300221E
:1005F4004FF00A0C194611F8010BA0F13006092E30
:1006040040F295809DF840101292C1F3400040EAF8
:10061400D2700A4660F341028DF840205CE0BA1CB7
:1006240003928DF843309DF84130DA0740F12E8172
:1006340054F8048BB8F1000F07DA9DF8402042F01B
:1006440004028DF84020C8F100085E0740F12781BC
:1006540054F804ABBAF1000F80F226819DF84130C2
:100664006FF341038DF841304FF0FF3A1CE12D2A1E
:100674000DD0302A7FF469AF012358E74FF0010C05
:1006840055E74FF0010E52E74FF001084FE70126FE
:100694004DE70EFB0262303A0346184610F8016B30
:1006A400A6F1300CBCF1090FF3D999428FD09DF813
:1006B40040101192D20F62F341018DF8401086E789
:1006C4000B4600224FF00A0EE7E79DF8412042F066
:1006D40004028DF8412002331A786C2A47D02BD8B3
:1006E400682A31D06A2A4BD04C2A51D01A4612F8C3
:1006F400013B0392782B9DF841208DF8433000F2A2
:10070400BE806D2B51D8692B00F2B980572B67D866
:10071400412B03D0453B022B00F2B1809DF84230BF
:10072400042262F302038DF84230012373E00CFBD0
:100734000202303A0B465DE7742A25D07A2AD5D1D5
:100744009DF8412006210CE05A78682A9DF8412042
:1007540006D1012161F3C6028DF841200233C5E7B9
:10076400022161F3C6028DF841200133BEE75A78B5
:100774006C2A9DF8412001D10421EBE70321F0E725
:100784009DF841200521ECE79DF841200721E8E789
:10079400BDF8402022F4F04222F0020242F48042EA
:1007A40042F00202ADF84020DFE76E3BD9B20123EC
:1007B4008B4040F282410B4237D113F0240F51D1C8
:1007C400D8075CD59DF84230032161F302038DF80C
:1007D400423002F07803A3F140014B424B411AE04E
:1007E400A3F15801C9B2012000FA01F111F4624FDA
:1007F40094D140F6010631421DD111F4043F3ED09C
:100804009DF8423060F3020302F07802402A8DF82A
:10081400423034D000239DF84020C2F340010B4302
:1008240063F341028DF84020FDE69DF84230022139
:1008340061F30203E8E79DF84210022002F0780217
:1008440060F30201402A8DF8421002BF9DF8401067
:1008540041F001018DF84010632BDBD1131E18BF4A
:100864000123D8E79DF84230032161F3020312F01B
:10087400780F8DF8423014BF01230023CBE79DF895
:10088400403043F001038DF84030C3E79DF9402028
:10089400002AB4BFDDF844804FF0FF38D5E698074E
:1008A4007FF5E2AEDDF848A09DF841100023CDE9C4
:1008B40011339DF8423003F00703012BC1F3C30148
:1008C40033D1CB1E042B04D8DFE803F021464621A4
:1008D4002100236801294FEAE372CDE90E321CD1CD
:1008E4009DF93830DA17CDE90E3204349DF84030E2
:1008F40013F0030650D0039B3A465946484602F08B
:1009040027F80028C0F253810544039FF2E554F808
:10091400043BDA17CDE90E32E8E70229E5D11AB231
:1009240043F3C033CDE90E23DFE7022B24D1CB1EE2
:10093400042B04D8DFE803F018101018180001295C
:1009440054F8043B4FF0000214D00229CDE90E32D2
:10095400CCD19BB20E93C9E7073424F00704F4E822
:100964000223CDE90E23C1E754F8043B0E93002380
:100974000F93BBE7DBB2CDE7042B08D1073424F097
:100984000704D4E900230834CDE90E23AEE7032B92
:10099400ACD154F8043BDDE79DF843007828B4D883
:1009A40062281CD825283FF4ADAD5828ADD10DF1EF
:1009B40036030093DDE90E0108AB10AA01F082FFB3
:1009C400BAF1000F074680F29A80002F9DD00DF1F6
:1009D4003603D81B002E00F0C1800130BEE063381E
:1009E400152892D801A252F820F000BFC50A0008C9
:1009F400D70A00080F0900080F0900080F090008AA
:100A04000F090008D70A00080F0900080F09000899
:100A14000F0900080F090008650B0008FD0A00080B
:100A2400230B00080F0900080F090008490A0008F1
:100A34000F090008FD0A00080F0900080F09000843
:100A4400FD0A0008BAF1000F0E9F35DB5146384607
:100A540001F0B0FF07EB000A002F3FF456AF002669
:100A64009DF8423013F01002059200F0938002309A
:100A74005B06119A48BF129B0492104448BFC018E9
:100A8400B8F1000F40F3A0809DF84020A8EB0008C7
:100A9400C2F380035007069300F19680510640F19B
:100AA40089803EB159463046C84700287FDB069B03
:100AB40001351E4630227EE0384601F074FFC9E756
:100AC4000E9B8DF82030002608AF0DF1210A01207D
:100AD400C6E719075CBFC3F300135E01DDE90E230B
:100AE40048BF2B26002BBFF662AF524263EB430391
:100AF400CDE90E232D265AE7002658E700269DF857
:100B040040200DF13603DB1B6FF386129A458DF8F6
:100B140040207FF65AAFAAEB0303119355E70E98D2
:100B240090B30DF13603009310AA08AB002101F035
:100B3400C9FEBDF8423003F0EF0343F4F04343F041
:100B44001003BAF1000F0746ADF84230D6DA002898
:100B54003FF4DBAE0DF13603181A00269A467FE700
:100B64000E9B07293FF6D1AEDFE801F00C04060C1A
:100B740008080C0C1D70C8E61D80C6E6EA17C3E918
:100B84000052C2E61D60C0E62E4F064607F1050A74
:100B9400052065E71A0748BF013069E70793104647
:100BA40006925946C8470028DDE9062304DA15B041
:100BB400BDE8F08F202243461946002903F1FF3394
:100BC400ECDC45446D1A98462EB159463046C84768
:100BD4000028ECDB01359DF84230DA0601D41B070E
:100BE40005D559463020C8470028E0DB0135059B70
:100BF40033B19DF843005946C8470028D7DB013577
:100C0400049E2E4405E059463020C8470028CEDB18
:100C14000135731B002BF6DC53463A4659464846C9
:100C240001F096FE0028C2DB0544A844A8EB0503A6
:100C3400002B7FF76AAE59462020C8470028B6DB50
:100C44000135F3E7E23800080C4B1A6842F40072ED
:100C54001A601A6842F480621A604FF01002EFF3CF
:100C6400118382F31288BFF36F8F83F31188BFF36C
:100C74006F8F034B034A1A6000207047003C024008
:100C8400340000200024F400014910220A60704757
:100C940010ED00E072B6404080F31188BFF36F8F0F
:100CA400BFF34F8F30BF62B6BFF36F8F704700BF83
:100CB40040B2002807DB044A4109012300F01F0069
:100CC400834042F82130704700E100E040B2002840
:100CD400A8BF00F1604001F10101B8BF064B4FEA23
:100CE4000111ACBF00F5614000F00F00C9B2B4BF00
:100CF400195480F80013704714ED00E030BFFFF77B
:100D0400FDBF00BF0F4A08B50F4B22F07F029A6067
:100D1400BFF34F8FBFF36F8FD3F8882022F4700294
:100D2400C3F88820EFF3148323F0040383F31488B7
:100D3400BFF36F8F01F05EF801F044FC00F0CAF9D4
:100D440001F09CF80000000800ED00E0094A0A499F
:100D5400936809689967094958674B6843F0805359
:100D64004B60002383F31188BFF36F8F9368986FF0
:100D7400704700BFCC020020D838000800ED00E026
:100D840012498A684FF030001044EFF3098C80E870
:100D9400F01F102080F31288BFF36F8F0C4F4FF0B9
:100DA40000668A698A603E60506F0023536780F34F
:100DB400118804B5104600F0D1F9BDE8044002F1F1
:100DC400300090E8F01F8CF309887047CC020020B3
:100DD40004ED00E01EF0040F0CBFEFF30880EFF306
:100DE4000980816911F8021C0229FFD001B501F0C4
:100DF400CBFD01BD42F8203C009B42F81C3C0A4953
:100E0400019B42F8183C029B42F8143C21F001017A
:100E14004FF0807342F8043C42F8081C0023203A47
:100E240002654367704700BFB5280008094A0346B6
:100E3400906870B113F1160F406E05D0A0F1400216
:100E44009A4205D8834203D2814228BF00207047CA
:100E540000207047CC02002008B5094B98600D466D
:100E6400144600F07BF9204685F30988002163B617
:100E740081F31188BFF36F8F0022002301F018FD66
:100E8400CC02002001B5EFF30580A0F110004FEA79
:100E9400C0000449014409C99847BDE8014002491A
:100EA40008470000FC330008B10E0008044B9968A1
:100EB4009869884203D003494FF080520A60704712
:100EC400CC02002004ED00E070B51D4B15469A6A73
:100ED4009A6A9A6A9207064622D5586B9A6A140649
:100EE4001ED519B19A6A22F080029A629A6A9A6AA5
:100EF4009A6A134C12F0100F15D19B6A990712D4F9
:100F04000020A36A0E4A9B0642BF636A23F400537F
:100F14006362936A43F0FF03936200232B7070BDF6
:100F24006FF01500E2E763681A05E9D53146FFF76B
:100F34007DFF0028E4D080F309880220E1E700BFA8
:100F440000ED00E00D4B9A6A9A6A9A6A920508D5F8
:100F54009A6B9A6A120404D518B19A6A22F4004270
:100F64009A629A6A9A6AD205044A58BF9B6A936A3B
:100F7400002043F47F4393620870704700ED00E063
:100F840070B54A4B5B688AB00546C3F30803002674
:100F940086F31188BFF36F8F02F07F40B0F17F4F6B
:100FA40011D102F00C0008280DD010074CBF0D46DB
:100FB40001260022033B8DF80720032B4DD8DFE8E0
:100FC40003F00465696D3546F3E7384BDA6A910737
:100FD40043D4DA6A002A40DBDA6A52003DD55A6902
:100FE400A96942F480725A61BFF34F8FBFF36F8FC8
:100FF4005A6931F8021C22F480725A61BFF34F8F90
:10100400BFF36F8F4DF60272914209D09A6AD2B241
:1010140042B10DF1070201212846FFF755FF0AE00E
:101024002C681BE09A6A12F47F4F06D00DF1070179
:101034000120FFF787FF044610E09A6AB2F5803F6B
:101044000BD39A6A9A6A9A6A9A6A9A6A9A6A9A6AA2
:101054006FEA02426FEA12429A6200249DF8073056
:1010640093B92022294602A801F0ADFC099BBEB128
:10107400C3F3080222B96FEA53236FEA43230993A7
:1010840002A9204601F07EFC0AB070BD0DF10702F2
:101094000021C1E70DF107010020CAE7034BD0E7A7
:1010A40023F4FF7323F00103E9E700BF00ED00E040
:1010B400024A536943F010035361704700ED00E0A6
:1010C400EFF30880EFF3098101B57246FFF758FF8B
:1010D40001BD00BF044800231021C2180133552B61
:1010E40082F80013F9D1704700E100E0102080F38A
:1010F400118808484FF40461401880F30988EFF31D
:1011040014800221084380F31488BFF36F8FFFF724
:10111400F9FD000040030020084B9B6883420BD17B
:10112400EFF3058343B1064B5A6842F080525A608C
:101134005A6A22F400425A6201F0E4B9CC02002057
:1011440000ED00E0024B034A0348012100F070B8AF
:10115400000001200000002014370008426E054BF7
:10116400403A1A60044A4021C3E901121846012199
:1011740000F068B87801002000000B15F0B5204E8F
:1011840000258D4239DA446874B353B104F1FF3C4D
:1011940014EA0C0F2FD11F2C2DD907681CEA070F56
:1011A40029D1202C0768D0F808C05FFA82FE1ED926
:1011B400B4F1004F1DD8013CB4FA84F4C4F11F0407
:1011C4006400BEF1070F4CEA040C14D827F01F0486
:1011D400144344F01004C6F89820C6F89C404CF020
:1011E4000104C6F8A040013201350C30C9E70824D7
:1011F400E7E73E24E5E76FF015021046F0BD00BFB7
:1012040000ED00E0044B0522C3F89420BFF34F8F98
:10121400BFF36F8F704700BF00ED00E0BFF35F8F37
:10122400024B0022C3F89420704700BF00ED00E099
:1012340010B5034C01232278FFF7A0FF207010BDE6
:101244000003002008B5094A00231278FFF796FF2F
:1012540010F1160F02D0064A072800DD08BDC2F8B7
:101264009800C2F8A0300130F6E700BF0003002068
:1012740000ED00E014490868082810B521D8FFF7EC
:10128400CDFF124C49680022904201F10C0105D1B6
:101294000F4B1870FFF7B6FF002010BDC4F898205C
:1012A40051F80C3C23F01F03134343F01003C4F81C
:1012B4009C3051F8043C43F00103C4F8A0300132DF
:1012C400E2E74FF0FF30E8E72037000800ED00E0E8
:1012D40000030020014B1860704700BF0400002089
:1012E4002DE9F8430D4F04460E4615464FF001080C
:1012F40002F10409B44201DBBDE8F8837A6908FA13
:1013040004F333EA020207D17B6155F834301BB190
:1013140059F83410204698470134EBE7003C01406B
:10132400044A0123116883400B431360024B18568F
:10133400FFF7BEBC003C0140153900081F2806DC3D
:10134400034901220B68824023EA02030B607047C1
:10135400003C014003292AD8DFE801F0020E141FE3
:10136400134B01229968824021EA02019960D968ED
:1013740021EA0202DA6070470D4B0122996882402B
:101384001143F3E70A4B0122D96882401143D96023
:10139400996821EA02029A607047012303FA00F077
:1013A400034B9A6802439A60DA681043D860704726
:1013B400003C014010B5074B044653F8300028B9EF
:1013C40043F8341003EBC4035A6010BD6FF00F00F0
:1013D400FBE700BF84010020034B002243F83020C8
:1013E40003EBC0035A6070478401002010B5174B0B
:1013F40018680B68442B144613D82F2B06D8012BDE
:1014040014D0022B1BD06FF0850010BDA3F1300166
:1014140001228A400E490A4205D1402BF3D14008EB
:1014240001E0A82BEFD120600020EEE700F096F851
:101434004FF4A87358436423B0FBF3F0F3E700F0D0
:101444008DF84FF4A8735843AF23F5E73400002018
:101454001101100070B53C4C3C4E00F097F800F0C0
:1014640011FCA3683A4AC3F30313D35C20FA03F5CF
:10147400B54202D8374800F033FC236823F48023B4
:101484002360236843F4803323602F4B1A6894034A
:10149400FCD59A6802F00C02082A17D19A6822F047
:1014A400F0029A601A68900707D41A6842F00102A1
:1014B4001A60254A13689907FCD5234B9A6822F0D1
:1014C40003029A609A6812F00C0FFBD11E4C236839
:1014D40023F080732360636823F4403343F4803340
:1014E4006360636823F0706343F0E063636000F05B
:1014F40039F8236843F08073236023689B01FCD58B
:10150400A36823F0F003A360A36823F0030343F06C
:101514000203A3600C4CA36803F00C03082BFAD15C
:10152400B54202D90B4800F0DBFB0B4B094A1A60A9
:10153400A36823F4E05343F48053A360A36823F423
:101544006043A360002070BD00380240FFBC010569
:10155400B939000800BD0105340000200048704777
:1015640040787D01064A074953681940064B0B43EE
:101574005360536823F4403343F48033536070471B
:10158400003802400080BFFF19544000064B1A6C1B
:1015940042F080521A641B6C82B003F080530193B2
:1015A400019B02B0704700BF0038024008B50748ED
:1015B40001F08CFD38B10648FFF78CFE0448FEF7B5
:1015C4007DFF002008BD6FF01200FBE7E433000844
:1015D400D91500080A2838B5074D044604D1AB686C
:1015E4000D215B6828469847AB6803485B68E1B205
:1015F4009847204638BD00BFE433000838B5036976
:1016040004465860084D284601F060FD40B1616809
:10161400AB680C311B682846984700EAE07038BD77
:101624006FF01200FBE700BFF4320008F7B517466D
:10163400B7F5001F466802690C461D4624D101F027
:101644000302043292000F23934043EA9103DAB277
:101654003349023251F82220190C02EA134391FA59
:10166400A1F2B2FA82F2D340B2689A4209D120467A
:10167400FFF764FE2046FFF7AFFE00212046FFF788
:1016840069FE002003B0F0BDB7F5800F41D02549B5
:101694002046FFF78FFE00283ED1234AB66892E821
:1016A40003006B4683E803002048826819461268E9
:1016B4009047C0B904F0030304339B000F229A40FF
:1016C40042EA9402D3B29B0003F1804303F59C33B6
:1016D400110C986820EA124091FAA1F2B2FA82F24F
:1016E400964006439E60B5F1806F0ED0B5F1C06F91
:1016F4000DD005F17E435942594149002046FFF778
:1017040029FE2046FFF70CFEBBE70121F6E7032183
:10171400F4E76FF08500B5E76FF00F00B2E700BFA4
:10172400003801403D2D00080C370008F432000851
:101734004268116801F1140353E8003F43F00103C8
:1017440001F1140C4CE800300028F3D113680E4961
:101754008B4207D0A1F54C418B4203D001F5504197
:101764008B4203D1196941F040011961126802F1F9
:101774000C0353E8003F43F4807302F10C0040E88B
:1017840000310029F3D1704700100140426811680C
:1017940001F1140353E8003F23F0010301F1140C99
:1017A4004CE800300028F3D113680E498B4207D06F
:1017B400A1F54C418B4203D001F550418B4203D13A
:1017C400196921F040011961126802F10C0353E810
:1017D400003F23F4807302F10C0040E8003100293B
:1017E400F3D1704700100140F7B507694468064615
:1017F4003548786001F06AFC002862D07868616836
:1018040083681B6898470546002852D1014601AAFF
:10181400A06901F044FC002801DA054649E0019B77
:101824002A461979186800F0E7F90028F5DB2268E0
:10183400D36823F40053D360216801F10C0353E807
:10184400003F43F00C0301F10C0040E80032002A91
:10185400F3D12369022B2FD0012B12BF00204FF4A8
:1018640080504FF4C0622168CB68104323F4B05316
:101874000343CB600B6923F440530B61237B2BB1EF
:1018840073681A68536943F4407353613968304686
:1018940001F095FB237D23B12268536943F00803CB
:1018A40053612268D36843F40053D360E36930463C
:1018B4009847284603B0F0BD4FF480504FF480623F
:1018C400D1E76FF01205F4E7F43200082DE9F04196
:1018D4000B7945680669012B0C467DD09A1E574248
:1018E4005741BF02627994F80680022A96BF4C4998
:1018F4004FF4005C31F812C0B8F1040F7BD094F8B7
:1019040007E0002B6BD1BEF1010F22F002027FD061
:10191400002A70D0B8F1020F6DD91946D5F80080AD
:10192400BEF1000F0DD03F4A904507D0A2F54C42BE
:10193400904503D002F5504290455CD1BEF1010FB1
:1019440059D1D8F80C2022F40052C8F80C2042686F
:10195400D2F800E0DEF80C2002F4C06297421FBF08
:10196400DEF80C2022F4C0623A43CEF80C20426820
:1019740017683A6902F4405294451FBF3A6922F449
:10198400405242EA0C023A6142681768FA6802F46B
:1019940080529A421FBFFA6822F480521343FB60BC
:1019A40043681A68536903F4407399421FBF53692B
:1019B40023F440730B43536121683368994203D085
:1019C40001F0FDFA236833602A68D36843F40053B6
:1019D400D3600020BDE8F0814FF4C06782E7033B89
:1019E400BEF1010FDBB209D1012B04D94FF44071D0
:1019F40012F0FD0F06D16FF08500EBE7012BFAD949
:101A04000021F5E7B8F1020FF5D94FF4805385E7CB
:101A1400002AF0D0B8F1020FEDD94FF440717DE700
:101A2400DC3800080010014010B54FF0E0239A693B
:101A340019699869094B11F4803F094901D182421F
:101A440006D21A680C6822441A604FF0E022126928
:101A54001B680A681344181A10BD00BFBC0200209A
:101A6400C8020020094B102283F82320084B42F2BD
:101A7400CF021A60074B002018604FF0E0235A6130
:101A840098611A6942F007021A61704700ED00E09C
:101A9400C8020020BC02002008B5FFF7C5FF0C4BAC
:101AA4000C4A186811680844106000221A600A4A37
:101AB400136842F2D001C01AB0FBF1F001FB00330D
:101AC400136000F065FEBDE80840FFF7EFB900BF02
:101AD400BC020020C4020020C00200202DE9F04115
:101AE400314E002954D0421C0AD14FF0E022136930
:101AF40023F0010313614FF07F433360BDE8F081AD
:101B0400356801284ADD40F2CC78404501DC00F11B
:101B1400FF384FF01003EFF3118483F31288BFF3FF
:101B24006F8FFFF781FF214F4FF0E0230021D3F89F
:101B340018C03B68C2181E4B19601E4B1B68D11A93
:101B44002FD442F2D00000FB081101F503519B1A77
:101B54000F31B1FBF0F100FB0133B3F5806F20D9F5
:101B640015498B4228BF0B464FF0E021336088694A
:101B7400013B4B6100238B618445ACEB000338BF10
:101B84005B191A443A6084F31188BFF36F8FB5E789
:101B9400431C3568B5D140F2CC70B8E74FF000086B
:101BA400B7E74FF48063DFE7C8020020C4020020D7
:101BB400BC020020C0020020C0D5FF0010B54FF0C9
:101BC4001003EFF3118483F31288BFF36F8FFFF7D1
:101BD4002BFF074B074A1B6812689B1A034484F3C4
:101BE4001188BFF36F8F42F2D000B3FBF0F010BD49
:101BF400C4020020C00200202DE9F047204F044613
:101C040000EBC1060025B44201D1002014E0226893
:101C1400D10602F01F0911D4656845F02005C2F30E
:101C2400471AC2F343220A2A27D857F82280B8F168
:101C3400000F11D16FF01200BDE8F087B9F1100F59
:101C440008D0B9F1110FEAD165682B05E7D545F045
:101C54001005E4E73025E2E7404601F037FA0028B2
:101C6400E8D04B462A460AF00F01404601F07BF8C3
:101C7400002804F10804C6DADEE76FF01500DBE79C
:101C84009838000808B513498B6803F00C03042B3B
:101C94001CD0082B1CD14A684B68496813F4800394
:101CA40014BF0D480D48C1F3881118BF002302F07A
:101CB4003F02A1FB0001FEF76BFA064B5B68C3F31E
:101CC400014301335B00B0FBF3F008BD0248FCE7BD
:101CD4000248FAE70038024040787D010024F4000D
:101CE400002841D0214B1A681A6802F44042B2F528
:101CF400004F25D11E4A90421DD81E4A1B689042AF
:101D040001D8002005E003F440430120B3F5804FDF
:101D140024D0194A136823F007030343136013689C
:101D240003F0070383421CBF136803F00703C01AC0
:101D340018BF012070471B68022003F44043E5E705
:101D44001B6803F44043B3F5804FDAD1084B984243
:101D540008D8084B98424FF00000DAD9012838BF60
:101D64000120D6E70220D4E701207047007000402C
:101D74000087930380C3C901003C02400F4B70B538
:101D840053F82040013053F82060A64200D870BDBB
:101D9400D4E90035284698476DB138B10028B8BF5A
:101DA4004042EB68FF28A8BFFF201870EA68537808
:101DB40043F0010353700834E7E700BFC438000858
:101DC40008B50A4B012202201A70FFF7D7FF00F072
:101DD40053FD0320FFF7D2FF00F0EAF8FEF742FBC1
:101DE400034A137B23F00103137308BD010300208E
:101DF400F000002008B50348034A0021121A01F03C
:101E040096F908BD700000200403002070B500237B
:101E140086B00122CDE90423134E144D01930F2201
:101E2400CDE902321249182303FB005506EBC01614
:101E340004464FF4C07000FB04110E4B00954FF4A0
:101E4400A072304600F082F8737B0B4AEE6023F0F8
:101E5400040373734FF4046304FB033313442C75BA
:101E64006B6006B070BD00BF70000020CC02002083
:101E7400800B00203B3100084003002080B52C4B30
:101E8400A6B083F308882B4D2B4E6B692B4F43F47C
:101E9400007300246B61F02385F82230EC772C76F4
:101EA4006C76AC7685F820406B6A43F4E0236B6271
:101EB400FFF7FEF8FEF7E8FE4FF0FF33AB62EB628C
:101EC400FFF7D8F9FFF73EF940F20113ADF82430DB
:101ED40006ABB360CDE91F44229401F0F6F8204626
:101EE400FFF74CFF0120164DFFF748FF00F05EFAA4
:101EF400144BB5610593012313490094CDE90343C1
:101F04004FF480623B46CDE90144284600F01EF8B8
:101F14006A7B064622F0040228466A7301F04BF9F4
:101F24002046FFF773FF3A4631462846FEF794FFF2
:101F3400800B002000ED00E0CC020020C51D00084D
:101F4400F0000020C9390008000D00202DE9FF41F0
:101F54000E9E0673042646730D9E867300F1580583
:101F64000F46D61DC0E916550C9A002526F0070623
:101F74004037C0E90655C0E919768560C573C56662
:101F840006F1400802920B9A019288440A9A009240
:101F940042460446FEF72EFF044B65659B6803B179
:101FA4001B6F2367404604B0BDE8F081CC020020DB
:101FB400F0B5224C224D87B02646AE4204F13004DF
:101FC4000BD300F0C3F91D4C1E4F0A26AC4220D39C
:101FD40007B0BDE8F04000F0CDB954F8043C0593D7
:101FE40054F8103C049354F8143C039354F8183CEC
:101FF400029354F81C3C019354F8203C009354E998
:102004000A2354E90C01FFF7A1FF54F8303C5E6544
:10201400D2E7626A531C09D022EAE27282FB0623E9
:1020240052EA0301206803D100F040F93034CDE7CF
:102034003946183000F02EFBF8E700BF6C00002092
:102044006C0000207731000838B5074D2C6854B176
:10205400FFF7B4FD054B04441C6128680021BDE86A
:10206400384001F0E4B838BDF8020020CC0200206A
:1020740038B50D4D2B4653F81C4F9C4200D004B983
:10208400EC68AB6838B95A7BD20604D1A26912B99C
:10209400DA897F2A05D89C4202D02046FFF7D4FF74
:1020A4002346AB6138BD00BFCC02002070B590F967
:1020B4000D20437B002A014604DA03F07F034373B7
:1020C40001F045F84B7B154A63F07F0310464B73D0
:1020D40050F81C3F146A834208BF002323B9C1E9A6
:1020E4000004216011620CE091F90E5093F90E6026
:1020F400B5420ED0AE420CDD5868C1E90030016033
:1021040059609068431A5842BDE870405841FFF73F
:10211400AFBF9C42E3D01B68E0E700BFCC020020C5
:1021240070B490F90D30427B002B29DBD30627D104
:1021340083692BBB134962F07F0242730A4652F84B
:102144001C4F944218BF23460C6A23B9C0E90024EB
:10215400206008620CE090F90E5093F90E60B542CD
:102164000AD0AE4208DD5A68C0E9003210605860F7
:1021740070BC0020FFF77CBFA342E7D01B68E4E7F4
:1021840070BC7047CC02002008B590F90D20437B49
:10219400002A014604DA03F07F03437300F0D7FFFB
:1021A400044B9868431A58425841BDE80840FFF769
:1021B4005FBF00BFCC02002010B54FF01003EFF357
:1021C400118483F31288BFF36F8F0A23002800FB66
:1021D40003F302DD022BB8BF0223074A002010617B
:1021E40006480360064B90681960FFF72DFF84F3DF
:1021F4001188BFF36F8F10BDCC020020F8020020BD
:10220400F402002038B54FF01003EFF3118583F387
:102214001288BFF36F8F174B174A9C6811688C4262
:1022240007D12046FFF710FF85F31188BFF36F8FA6
:1022340038BD00211160114A1268C2B1E2897F2AB7
:1022440015D8627BD20612D10D4A94F90E10126889
:1022540091420CDB0B4A944209D01A69824203DC96
:102264002046FFF723FFDCE7121A1A61DCE700229D
:10227400FBE700BFCC020020F0020020F80200209F
:10228400F40200207000002049B9EFF3058030B952
:10229400054B9A699B689A4201D0FEF757BD81F3BA
:1022A4001188BFF36F8F7047CC02002010B54FF038
:1022B4001002EFF3118482F31288BFF36F8F427B15
:1022C400510704D484F31188BFF36F8F10BD22F03B
:1022D40004024273FFF724FF21460248BDE8104080
:1022E400FFF7D2BF0203002070B50446183000F097
:1022F40088FF4FF01003EFF3118683F31288BFF3C6
:102304006F8F94F90D20637B002A05DA03F07F03B5
:102314006373204600F01BFF0B4D637BA86843F0FA
:1023240010036373031B58425841FFF7A1FE86F361
:102334001188BFF36F8FAB68A34203D1BDE870402F
:1023440000F055BF70BD00BFCC0200204FF0100359
:10235400EFF3118183F31288BFF36F8F044B9A68F4
:10236400D37B013BD37381F31188BFF36F8F704725
:10237400CC02002010B54FF01003EFF3118483F367
:102384001288BFF36F8F084B9A68D37B0133D373E2
:102394000020FFF76DFE84F31188BFF36F8FBDE853
:1023A400104000F024BF00BFCC020020044B0021E9
:1023B40003F11C02C3E907220846FFF7FDBE00BF74
:1023C400CC020020F8B54FF01003EFF3118583F32E
:1023D4001288BFF36F8F19498868437B03F07F032A
:1023E400437300F0B4FE8B685A7B084662F07F02A8
:1023F4005A7350F81C2F0C6A824208BF002222B97B
:10240400C3E9000423600B620CE093F90E6092F9B7
:102414000E70BE420ED0B7420CDD5168C3E90021F4
:102424000B6053600120FFF723FE2846BDE8F84007
:10243400FEF78CBCA242E3D01268E0E7CC02002095
:1024440050EA01032DE9F04105460E4603D1FFF79A
:10245400B9FF00202CE0831C71F1FF332ADB00F06C
:1024640002FF44194FF01003EFF3118883F312882D
:10247400BFF36F8F114F124BB8681860FFF784FEDB
:10248400B86810492A463346183000F003F9BA6890
:10249400537B43F0100353734046FEF757FC00F0A0
:1024A400E2FE201A63EB0303012873F10003D0DB7F
:1024B400BDE8F0816FF00104241AD3E7CC020020B8
:1024C400F002002077310008B1F1FF3F08BFB0F1FE
:1024D400FF3F08B506D1074B9868FFF705FF4FF09B
:1024E400FF3008BDFFF7ACFF0A220023C117FDF738
:1024F4004FFEF6E7CC020020014B9868704700BFFE
:10250400CC0200202DE9F04104464FF01003EFF314
:10251400118683F31288BFF36F8F037BD9070BD522
:1025240086F31188BFF36F8F404080F311884FF01A
:10253400040002DFBDE8F081437B1A0704D586F36B
:102544001188BFF36F8FF5E723F0200242F00801F2
:10255400D20920D14173A36813B1204600F0FFFDD6
:1025640004F1180000F04DFE04F158074FF0000884
:10257400A56DBD4200D0B5B90120FFF779FD104B20
:102584009B68A342DBD1EFF30583002BD7D1304600
:10259400FEF7DCFBD3E703F05F0343F00803437368
:1025A40000F0D5FDD7E7284600F0D9FD05F1180065
:1025B40000F027FEC5F878802846FFF7B1FDD7E77D
:1025C400CC02002008B50648064A0749121A00F052
:1025D400B0FDBDE80840054A0549064800F0A9BD1C
:1025E400000000206C000020183A000800000000E1
:1025F400183A000800000020034B1B680BB9FFF7D2
:10260400DDBA0020704700BFFC02002010B5114B5A
:102614001C689C420AD1FFF7EFFF6FF000400E4B9D
:102624001B6913B19842A8BF184610BDFFF7E4FF19
:10263400002CF2D0D4E904321B1A62EBE072B3F13D
:10264400004F72F10001E8DA002AACBF18460020FE
:10265400E5E700BF38000020CC02002030B570B19F
:102664000B4B5B6898420AD0036843B1D3E9042159
:10267400D0E90445121941EB0501C3E90421D0E96D
:10268400003213605A600023C0E9003330BD00BF3C
:1026940038000020B3F1FF3F08BFB2F1FF3FF8B5A7
:1026A40004461D46164661D081604FF01003EFF3D7
:1026B400118783F31288BFF36F8F013275F1FF33F3
:1026C40024DA3049D1E900206FF001039B1A4FF05E
:1026D400FF3262EB00009E1B60EB0500012E70F1DF
:1026E400000301DA01260020C4E90460264ED6F86E
:1026F40000C07568B44508BF4FF0000CBCF1000F72
:102704000DD1C4E900652C6074601CE0FFF774FF10
:10271400013645F10005361845EBE070E4E7DCE9E5
:102724000420D4E90431934271EB000E1FDAD21A6B
:10273400DCF8043060EB0100CCE90420C4E900C3F8
:102744001C60CCF804403368B3420BD09C4209D1DE
:10275400FFF75CFF18B10D4B1B69834202D00021C7
:10276400FFF7BCF987F31188BFF36F8FF8BD9B1A8D
:1027740061EB0001AC45C4E90431C2D0DCF800C00F
:10278400BCE700BF7001002038000020CC0200200C
:102794002DE9F8430446FFF735FD4FF01003EFF33E
:1027A400118683F31288BFF36F8F234FDFF88C8079
:1027B400D8F80000224A3C604045D2E9003E4FEA86
:1027C400E4710BD050B1D0E9045CAC4271EB0C095C
:1027D40016DA2D1B6CEB010CC0E9045CE3184EEB1C
:1027E40001010024C2E900313C60FFF70FFF2146DC
:1027F400FFF774F986F31188BFF36F8FBDE8F88390
:10280400EB184EEBE571C2E9003100220023C0E968
:102814000423FFF723FF86F31188BFF36F8F8368C8
:1028240098474FF01003EFF3118683F31288BFF338
:102834006F8F3C68641BBBE7FC020020380000205B
:102844007001002010B54FF01003EFF3118483F3EF
:102854001288BFF36F8FFFF7CFFE064A0346D2E913
:102864000001181841EBE37184F31188BFF36F8FF3
:1028740010BD00BF70010020024A0349034800F064
:102884000AB800BF153A0008CE390008EF3900082D
:102894007047002070470FB407B504A951F8040B22
:1028A4000191FDF711FE03B05DF804EB04B070472D
:1028B400044608B5084611461A46A047FFF71CFE11
:1028C400FEF72AFC2DE9F84F9A46D3786F2B804601
:1028D4000F461546A3F1410B29D024D8582B0CBF21
:1028E40010260A26DDF82890324600234046394651
:1028F400FDF74EFC092AD4B21ED83034B045E4B2F8
:1029040077F1000709F8014D01D3D14511D82B788F
:102914009B0605D5082E15D1AB7843F00803AB70A0
:102924004846BDE8F88F03F0F703702BD7E7082675
:10293400D8E780460F46D7E7BBF1190F94BF373469
:102944005734DBE7102EEBD1AB7843F01003E6E706
:102954002DE9F0410746884615461E461446B44202
:1029640005D30EB1601B08E02378002BFAD014F8CD
:10297400010B4146B8470028F1DABDE8F081704701
:102984000020704700F0B8BB0146006800F0B4BBFB
:1029940000210120FFF7F6BF08B5FEF7AFF9BDE847
:1029A4000840FEF783BA034600201A5C02B9704758
:1029B4000130FAE7034600201A5C0AB1884200D1CC
:1029C40070470130F8E710B5431E0A44914200D124
:1029D40010BD11F8014B03F8014FF7E7C9B20244E7
:1029E4000346934200D1704703F8011BF9E74FF007
:1029F400FF307047002208B511460620FEF766F93D
:102A0400002211460720FEF761F900221146082032
:102A1400FEF75CF9002211460920FEF757F900225F
:102A240011460A20FEF752F9002211461720FEF73C
:102A34004DF9002211462820FEF748F900221146DC
:102A44000120FEF743F9002211462A20FEF73EF941
:102A5400002211460220FEF739F900221146032014
:102A6400FEF734F9002008BD026917211620FEF78D
:102A740037BC026916211520FEF732BC0269132106
:102A84001220FEF72DBC026911211020FEF728BC8C
:102A9400026910210A20FEF723BC02690A210520DD
:102AA400FEF71EBC026905210420FEF719BC026969
:102AB40004210320FEF714BC026903210220FEF75F
:102AC4000FBC026902210120FEF70ABC0269012140
:102AD4000020FEF705BC0B68A3F13002782A9FBFE3
:102AE40003F1804303F50E3349681A689DBF0A4316
:102AF40000201A606FF0850070470B68A3F1300264
:102B0400782A9FBF03F1804303F50E3349681A689E
:102B14009DBF8A4300201A606FF0850070476FF0F4
:102B24008500704743685B681B690B600020704731
:102B340043685B68586942400A4042405A61002039
:102B4400704743685B6800209961704743685B681D
:102B5400090499610020704743685A6853694B40DF
:102B640053610020704710B50369986848B18842E2
:102B740013D1DC6808689860A14200D1D8600020B5
:102B840008607AB9002010BD814206D1086820602F
:102B9400D8688142F3D1DC60F1E70446006800287C
:102BA400F2D13AB19A680A60DA689960002AE9D1E8
:102BB400D960E7E76FF01500E5E7F0B54468012058
:102BC400676888401E46C2F3801327EA00078B40DB
:102BD4003B43636090FAA0F7B7FA87F7D4F808C0CC
:102BE4004FF0030E7F000EFA07F72CEA070C90FA59
:102BF400A0F7B7FA87F7C2F3C1137F00BB4043EADB
:102C04000C03A36090FAA0F3B3FA83F3E7685B00C4
:102C14000EFA03F327EA030790FAA0F3B3FA83F357
:102C240002F030055B00C2F341229A403A43202D62
:102C3400E26016D107292BDC90FAA0F3226A2BB3A9
:102C4400B3FA83F39B000F2101FA03F322EA030290
:102C540090FAA0F3B3FA83F39B0006FA03F3134349
:102C6400236290FAA0F3B3FA83F3226890FAA0F0F7
:102C74005B000321B0FA80F02D0901FA03F3400050
:102C840022EA030385401D432560F0BD2B46D9E7A6
:102C9400030A616A93FAA3F282B1B2FA82F2920051
:102CA4000F2793FAA3F3B3FA83F307FA02F29B0014
:102CB40021EA02029E4016436662D2E72A46EEE704
:102CC40038B5044690030D46134617D591070ED523
:102CD4005A072ED55022D8060BD542F40072190398
:102CE4001AD5616801234968AB408B610DE010225D
:102CF400F1E79906F3D542F48062F0E7DA0313D5DD
:102D0400D80613D4C3F340139A02606800232946FB
:102D1400FFF753FF002038BD5B03F6D50121A9401E
:102D24002046FFF713FFF0E73022EEE74FF400727E
:102D3400EBE76FF08500EEE770B50B46896821B1CB
:102D440001255E680C68854001B970BD8A682A4017
:102D540002D04B68304698471CB1236821461C4674
:102D6400F2E72346FAE7F8B51F46044640680E46E4
:102D74001546FFF722FF112F07D101212B0501FA78
:102D840006F104D563685B6899610020F8BD2046AC
:102D9400FFF7DCFEF9E782B003680193019B436807
:102DA4000193019B02B0704708B543681868036833
:102DB4001A0701D5FFF7EFFF03689B0643BF43687B
:102DC4000B7000204FF0FF3008BD10B5406802685A
:102DD40013681B06FCD54FF01002EFF3118382F346
:102DE4001288BFF36F8F02681468240604D483F337
:102DF4001188BFF36F8FEAE7516083F31188BFF343
:102E04006F8F10BD08B541680B681A681868C00751
:102E14001868C2F3C00248BF42F002028007186873
:102E240048BF42F00402C00542BF6FF4807042F014
:102E340008021860D307086801D5FFF7ACFF9107B3
:102E440001D5FFF7A8FF530701D5FFF7A4FFFFF74C
:102E5400A2FF104608BDF0B546683368186810F044
:102E6400800010D04FF01003EFF3118783F3128822
:102E7400BFF36F8F0023DCB2A242204604DC87F349
:102E84001188BFF36F8FF0BD3568D5F800C01CF012
:102E9400800F03F10103F2D0085D6860EBE770B5C1
:102EA40045680024E0B2824203DD2B681E68B60642
:102EB40000D470BD5B680B54286803681B0701D5F8
:102EC400FFF769FF0134EDE743681A6802F10C0368
:102ED40053E8003F43F0400302F10C0040E80031A6
:102EE4000029F3D1704743681A6802F10C0353E8D0
:102EF400003F23F0400302F10C0040E800310029B8
:102F0400F3D1704743681B68186810F080001CBF39
:102F1400D868C0F38010704743681B681868C0F312
:102F24008010704743681A6802F10C0353E8003FAD
:102F340043F0200302F10C0040E800310029F3D1F2
:102F4400704743681A6802F10C0353E8003F23F00A
:102F5400200302F10C0040E800310029F3D170474E
:102F640043681B681868C0F34010704743681B68C7
:102F74001A68910602D5DA68920607D4186810F028
:102F8400400004D0D868C0F3801070470120704717
:102F9400012070470369C3E902127047026993680C
:102FA4000BB1D1681847704708B500222520114697
:102FB400FDF78CFEBDE808402520FDF779BE37B546
:102FC4000369446858688368DB680D466168F3B137
:102FD40001AA984700281ADB22680198D3681921AE
:102FE40023F40043D360A0FB0101AA00AB0FFDF75B
:102FF400CFF86422B0FBF2F102FB11031B01246839
:103004003233B3FBF2F303EB01139BB2A36003B0BF
:1030140030BD03691B680B6043681B68DB6803F4FD
:10302400C063B3F5806F2FD0A3F5C06CDCF100034F
:1030340043EB0C030B7143681B681B6903F4405397
:10304400B3F5805F22D0B3F5405F21D0002B0CBFD5
:10305400012303234B7143681B68DA68DB68D204DD
:1030640003F4C06316D5002B14BF032304238B7110
:1030740043681B685B6903F44073A3F540725342D1
:103084005341CB71002070470223D3E70023E1E7CB
:103094000223DFE7002B14BF02230323E7E770B505
:1030A40003686FF06046136005790468354404EBE7
:1030B400C504A34202D96FF0010070BD5C798C4253
:1030C40001D00833EFE70020F7E7704738B1C36851
:1030D4001888C0F30800A0F580735842584170471F
:1030E4004FF01002EFF3118382F31288BFF36F8F56
:1030F400FEE708B5FFF7F4FFF8B505460E464FF0B6
:103104001003EFF3118783F31288BFF36F8FFFF778
:10311400F3F9314604462846FFF7EBFF87F311889D
:10312400BFF36F8F2046BDE8F840FDF7F5BFFFF70A
:1031340055BCFFF748BC08B54FF01002EFF31183FC
:1031440082F31288BFF36F8FFDF7A4FDF4E7D0E993
:10315400003213605A600023C0E90033704708B599
:10316400FFF7F5FF437B23F00203437300238360DF
:1031740008BD10B501464FF01003EFF3118483F33B
:103184001288BFF36F8F10F80B3C13F0280F0DD18A
:1031940051F8103C18380BB1FFF7E1FF11F80B3C64
:1031A40023F0140301F80B3CFEF7BAFF84F31188F3
:1031B400BFF36F8F10BD10B54FF01003EFF3118400
:1031C40083F31288BFF36F8FFEF7AAFF84F311888D
:1031D400BFF36F8F10BD034620B9EFF305820AB920
:1031E400FDF7B4BD83F31188BFF36F8F70474FF0C1
:1031F4001003EFF3118083F31288BFF36F8FFFF78F
:10320400EABF10B54FF01002EFF3118482F3128875
:10321400BFF36F8F03683BB1FFF720FA002084F3FC
:103224001188BFF36F8F10BD6FF01500F7E770B50D
:1032340004460D464FF01003EFF3118683F3128812
:10324400BFF36F8FFFF7E2F9012807DDA04205DB2A
:10325400A0422946A8BF2046FEF740FC86F3118809
:10326400BFF36F8F70BD08B5FFF7ECFA08BD00001F
:0832740054CFFF7F01000000B0
:10327C004D0C00080000000085290008000000002B
:10328C0059140008F4320008F92900080C3300081E
:10329C000116000824330008011600083C3300080E
:1032AC000116000854330008011600086C3300089E
:1032BC000116000884330008011600089C3300082E
:1032CC0001160008B433000801160008CC330008BE
:1032DC00ED170008E4330008B115000800000000E9
:0832EC00691A0008000000004F
:1032F4002C390008000000000800002044000020D1
:1033040000000000F2360008F73800080000000052
:10331400000000004000002084010020EC3600087A
:103324003939000840370008E03700084800002019
:103334003C020020E43600084739000854370008EE
:10334400E03700084C0000204C020020DC36000866
:103354005539000868370008E0370008500000209D
:103364005C020020D4360008633900087C3700086A
:10337400E0370008540000206C020020CC3600081E
:103384007139000890370008E03700085800002021
:103394007C020020C43600087F390008A4370008E6
:1033A400E03700085C0000208C020020BC360008D6
:1033B4008D390008B8370008E037000860000020A5
:1033C4009C020020B43600089B390008CC37000862
:1033D400E037000864000020AC020020AC3600088E
:1033E400A9390008043800084C3800086800002097
:0833F40024000020A4360008AB
:1033FC0000000000952900080C3300088B2A0008F7
:10340C000C330008772A00080C3300086D2A0008DA
:10341C000000000095290008000000009529000814
:10342C000C330008D12A00080C330008C72A000806
:10343C000C330008BD2A00080C330008B32A00081E
:10344C000C330008A92A0008000000009529000888
:10345C0000000000952900080000000095290008D4
:10346C0000000000952900080000000095290008C4
:10347C0000000000952900080000000095290008B4
:10348C0000000000952900080000000095290008A4
:10349C000000000095290008000000009529000894
:1034AC0000000000952900080C3300089F2A000832
:1034BC000000000095290008000000009529000874
:1034CC000000000095290008000000009529000864
:1034DC000000000095290008000000009529000854
:1034EC000000000095290008000000009529000844
:1034FC000000000095290008000000009529000834
:10350C000000000095290008000000009529000823
:10351C000000000095290008E4330008A12F0008E2
:10352C000000000095290008000000009529000803
:10353C000C330008952A00080000000095290008AB
:10354C000C330008812A00080000000095290008AF
:10355C0000000000952900080000000095290008D3
:10356C0000000000952900080000000095290008C3
:10357C0000000000952900080000000095290008B3
:10358C0000000000952900080000000095290008A3
:10359C000000000095290008000000009529000893
:1035AC000000000095290008000000009529000883
:1035BC000000000095290008000000009529000873
:1035CC000000000095290008000000009529000863
:1035DC000000000095290008000000009529000853
:1035EC000000000095290008000000009529000843
:1035FC000000000095290008000000009529000833
:10360C000000000095290008000000009529000822
:10361C000000000095290008000000009529000812
:10362C000000000095290008000000009529000802
:10363C0000000000952900080000000095290008F2
:10364C0000000000952900080000000095290008E2
:10365C0000000000952900080000000095290008D2
:10366C0000000000952900080000000095290008C2
:10367C0000000000952900080000000095290008B2
:10368C0000000000952900080000000095290008A2
:08369C00000000009529000860
:1036A400010000800080FF7F010000800080FF7F18
:1036B400010000800080FF7F010000800080FF7F08
:1036C400010000800080FF7F010000800080FF7FF8
:1036D400010000800080FF7F010000800080FF7FE8
:1036E400010000800080FF7F00800080FF7F008059
:1036F400008003000400050006000700080009001C
:063704000A000B00FF7F2C
:02370A00FFFFBF
:10370C004400000000400000000000200000000009
:10371C0000000B060200000028370008000000081B
:10372C00E83800082200020700000020F0380008EA
:10373C001E000B11FFFF0000001C024007000000E0
:10374C003000000080000000FFFF00000018024065
:10375C00060000003000000040000000FFFF0000E9
:10376C0000140240050000003000000020000000A2
:10377C00FFFF0000001002400400000030000000B9
:10378C0010000000FFFF0000000C024003000000CE
:10379C003000000008000000FFFF0000000802409D
:1037AC00020000003000000004000000FFFF0000D9
:1037BC000004024001000000300000000200000084
:1037CC00FFFF00000000024000000000300000007D
:1037DC0001000000C52C0008292B0008352B00081F
:1037EC00472B0008512B00085D2B000831160008F0
:1037FC006B2B00080000000000100140243800086A
:10380C0001000000000000000000000000000000AB
:10381C002C380008AD2F00084400000010000000F8
:10382C0034380008010000003C3800080200000099
:10383C00270100000002000047010000000000000A
:10384C00AD2D0008CF2D0008092E0008D118000856
:10385C00173000085B2E0008A32E0008CD2E0008A0
:10386C00EB2E0008092F0008292F0008472F00080D
:10387C001D2F0008652F0008351700089117000848
:10388C00712F0008952F0008992F0008CC330008E1
:10389C00B43300089C330008843300086C330008F0
:1038AC00543300083C3300082433000800000000A7
:1038BC0000000000000000007C320008EC32000820
:1038CC00F4320008F4320008F4320008F5FFFFFF70
:1038DC00001000000030286E696C2900464C4153E2
:1038EC00485F30005352414D5F3000696E74657211
:1038FC00727570742D636F6E74726F6C6C65724040
:10390C00343030313363303000060708090A17179A
:10391C0017171728282828282801FF2AFFFF020339
:10392C007263634034303032333830300067706942
:10393C006F403430303231633030006770696F4023
:10394C003430303231383030006770696F40343089
:10395C00303231343030006770696F40343030327F
:10396C0031303030006770696F4034303032306342
:10397C003030006770696F4034303032303830305E
:10398C00006770696F40343030323034303000674B
:10399C0070696F40343030323030303000736572C3
:1039AC0069616C403430303131303030000000000F
:1039BC00000000000001020304060708096D61699C
:1039CC006E007A65706879722D76332E312E302D1B
:1039DC00343435312D67613362616530316537348C
:1039EC006265002A2A2A20426F6F74696E67205A1A
:1039FC006570687972204F53206275696C6420255C
:0C3A0C0073202573202A2A2A0A000000DB
:103A180097280008F3290008DB2A0008FF2A000875
:103A280000000000F1130008000000000000000082
:103A3800232B000800C20100000000000000000065
:103A4800000000000024F4003800002038000020A6
:103A5800000000000000000000000000000000005E
:103A6800000000000000000000000000000000004E
:0C3A780000000000000000000000000042
:04000005080010F1EE
:00000001FF
